:100000000C9462000C948A000C948A000C948A0070
:100010000C948A000C948A000C948A000C948A0038
:100020000C948A000C948A000C948A000C948A0028
:100030000C948A000C948A000C948A000C948A0018
:100040000C94D5030C948A000C9445040C941F0462
:100050000C948A000C948A000C948A000C948A00F8
:100060000C9477040C948A00000000002400270000
:100070002A000000000023002600290000000000E4
:10008000250028002B0004040404040404040202D4
:100090000202020203030303030301020408102007
:1000A0004080010204081020010204081020000012
:1000B0000008000201000003040700000000000027
:1000C0000000960511241FBECFEFD8E0DEBFCDBFE4
:1000D00011E0A0E0B1E0EEECF8E102C005900D9275
:1000E000AC39B107D9F723E0ACE9B1E001C01D920A
:1000F000A535B207E1F710E0C2E6D0E004C02197D1
:10010000FE010E94090AC136D107C9F70E94CF0536
:100110000C94650C0C94000090E0FC01E255FF4F3C
:100120002491FC01E656FF4F3491FC01EA57FF4F42
:10013000E491EE23C9F0222339F0233001F1A8F431
:10014000213019F1223029F1F0E0EE0FFF1FE458C1
:10015000FF4FA591B4918FB7F894EC91611126C02F
:1001600030953E233C938FBF08952730A9F0283067
:10017000C9F0243049F7809180008F7D03C08091C1
:1001800080008F7780938000DFCF84B58F7784BD28
:10019000DBCF84B58F7DFBCF8091B0008F778093CC
:1001A000B000D2CF8091B0008F7DF9CF3E2BDACF57
:1001B0003FB7F8948091A4029091A502A091A60265
:1001C000B091A70226B5A89B05C02F3F19F0019654
:1001D000A11DB11D3FBFBA2FA92F982F8827BC01A1
:1001E000CD01620F711D811D911D43E0660F771FC8
:1001F000881F991F4A95D1F708958F929F92AF92C9
:10020000BF92CF92DF92EF92FF920E94D8004B01F3
:100210005C0184E6C82ED12CE12CF12C0E94D80080
:10022000681979098A099B09683E7340810591051F
:10023000A8F321E0C21AD108E108F10888EE880E7F
:1002400083E0981EA11CB11CC114D104E104F10487
:1002500029F7FF90EF90DF90CF90BF90AF909F90E5
:100260008F9008952FB7F8946091A0027091A10229
:100270008091A2029091A3022FBF0895E0913402D1
:10028000F0913502309729F010923102109230022D
:10029000099408950895AF92BF92CF92DF92EF92A2
:1002A000FF920F931F93CF93DF936C017B018B0120
:1002B000040F151FEB015E01AE18BF08C017D10770
:1002C00059F06991D601ED91FC910190F081E02DFA
:1002D000C6010995892B79F7C501DF91CF911F914F
:1002E0000F91FF90EF90DF90CF90BF90AF90089567
:1002F000FC01538D448D252F30E0842F90E0821B2C
:10030000930B541710F0CF96089501970895FC01B0
:10031000918D828D981761F0A28DAE0FBF2FB11D08
:100320005D968C91928D9F5F9F73928F90E0089560
:100330008FEF9FEF0895FC01918D828D981731F01A
:10034000828DE80FF11D858D90E008958FEF9FEF6E
:100350000895FC01918D228D892F90E0805C9F4F44
:10036000821B91098F739927089588EA92E00E9471
:10037000A90121E0892B09F420E0822F089580E073
:1003800090E0892B29F00E94B50181110C940000A6
:100390000895FC01A48DA80FB92FB11DA35ABF4F1A
:1003A0002C91848D90E001968F739927848FA68974
:1003B000B7892C93A089B1898C91837080648C93C8
:1003C000938D848D981306C00288F389E02D808177
:1003D0008F7D80830895EF92FF920F931F93CF93A9
:1003E000DF93EC0181E0888F9B8D8C8D98131AC070
:1003F000E889F989808185FF15C09FB7F894EE8957
:10040000FF896083E889F9898081837080648083B3
:100410009FBF81E090E0DF91CF911F910F91FF90FE
:10042000EF900895F62E0B8D10E00F5F1F4F0F73A6
:100430001127E02E8C8D8E110CC00FB607FCFACF61
:10044000E889F989808185FFF5CFCE010E94C90135
:10045000F1CFEB8DEC0FFD2FF11DE35AFF4FF08232
:100460009FB7F8940B8FEA89FB8980818062CFCF98
:10047000CF93DF93EC01888D8823B9F0AA89BB89DB
:10048000E889F9898C9185FD03C0808186FD0DC0C6
:100490000FB607FCF7CF8C9185FFF2CF808185FFE7
:1004A000EDCFCE010E94C901E9CFDF91CF91089530
:1004B0002091E201260F3327331F21323105ECF45E
:1004C00020910602FC0190E080E0243069F082E097
:1004D0000895A091E2012191AC014E535E4FA40F0B
:1004E000B52FB11D2C930196861798F38091E201E8
:1004F000680F6093E20180E0089581E00895109212
:10050000060281E0809308021092070261E082E116
:100510000E948C0061E083E10E948C00E9EBF0E036
:1005200080818E7F808380818D7F808380E2809335
:10053000B80085E48093BC0008950895E0913302EB
:1005400080913202E81730F4F0E0E456FE4F8081EB
:1005500090E008958FEF9FEF08959091330280917E
:1005600032022FEF3FEF981748F4E92FF0E0E456FE
:10057000FE4F208130E09F5F90933302C9010895C0
:100580008091320290913302891B990B0895CF9389
:10059000DF93CB01EA01642F0E945802CE01DF9164
:1005A000CF910895CF93DF931F92CDB7DEB76983C4
:1005B00061E0CE0101960E94580281E090E00F9028
:1005C000DF91CF91089590E080E00895FC010190C3
:1005D0000020E9F73197AF01481B590BBC0188EAAD
:1005E00092E00C944B018F929F92AF92BF920F9327
:1005F0001F93CF93DF93CDB7DEB7A1970FB6F894D3
:10060000DEBF0FBECDBF19A2423008F44AE08E0112
:100610000F5D1F4F842E912CB12CA12CA5019401AC
:100620000E94E709E62FB901CA01EA30F4F4E05D5F
:10063000D801EE938D01232B242B252B79F790E005
:1006400080E0109719F0CD010E94E602A1960FB646
:10065000F894DEBF0FBECDBFDF91CF911F910F91F8
:10066000BF90AF909F908F900895E95CE1CFCF92BB
:10067000DF92EF92FF92CF93DF936B017C016DE2EB
:1006800088EA92E00E94EB01EC0166277727CB0114
:100690006C197D098E099F094AE00E94F3028C0FB4
:1006A0009D1FDF91CF91FF90EF90DF90CF90089545
:1006B000CF93DF930E94E602EC018AE491E00E946E
:1006C000E6028C0F9D1FDF91CF91089544E050E02A
:1006D00066E972E085E493E00E94C7028DE491E050
:1006E0000E94E6026091960270E090E080E042E0B5
:1006F0000E94F3028AE491E00C94E602CF93DF9328
:1007000085ED8093BC008091BE019091BF01A091C6
:10071000C001B091C1010796A11DB11D23E0B6959E
:10072000A795979587952A95D1F72091BC0024FD30
:1007300003C01092060236C04091BE015091BF0125
:100740006091C0017091C101452B462B472B69F385
:100750000097A105B10541F02AE12A95F1F700C003
:100760000197A109B109E1CF8091BD0191E090937A
:10077000BC018823B9F0C091B800D091BA00809133
:10078000BC008A7B8093BC0060E082E10E948C0008
:1007900060E083E10E948C000E947F02D093BA0047
:1007A000C093B800DF91CF9108951F920F920FB6BA
:1007B0000F9211242F933F938F939F93AF93BF93E7
:1007C0008091A0029091A102A091A202B091A302F7
:1007D00030919F0226E0230F2D3758F50296A11D78
:1007E000B11D20939F028093A0029093A102A09339
:1007F000A202B093A3028091A4029091A502A091BD
:10080000A602B091A7020196A11DB11D8093A4027A
:100810009093A502A093A602B093A702BF91AF91B7
:100820009F918F913F912F910F900FBE0F901F902E
:10083000189529E8230F0396A11DB11DD2CF1F9251
:100840000F920FB60F9211242F933F934F935F9304
:100850006F937F938F939F93AF93BF93EF93FF9388
:1008600088EA92E00E94C901FF91EF91BF91AF9198
:100870009F918F917F916F915F914F913F912F91B8
:100880000F900FBE0F901F9018951F920F920FB6EA
:100890000F9211242F938F939F93EF93FF93E091E7
:1008A000B802F091B9028081E091BE02F091BF02DE
:1008B00082FD1BC090818091C1028F5F8F73209158
:1008C000C202821741F0E091C102F0E0E855FD4F0D
:1008D000958F8093C102FF91EF919F918F912F91FE
:1008E0000F900FBE0F901F9018958081F4CF1F922C
:1008F0000F920FB60F9211242F933F934F935F9354
:100900006F937F938F939F93AF93BF93EF93FF93D7
:100910008091B900887F803609F44AC0F0F58832AA
:1009200009F4A7C018F5803109F49BC0B8F48823F6
:1009300009F4F9C0883009F494C0FF91EF91BF9198
:10094000AF919F918F917F916F915F914F913F9167
:100950002F910F900FBE0F901F901895883109F4BA
:1009600088C0803251F78093050214C0803409F4A6
:100970009DC040F48033B9F38833F9F680930502C3
:1009800085ECB0C0803509F485C0883509F496C07F
:10099000883499F60E947E03D0CF883909F48CC040
:1009A00038F5883729F050F4883611F0803729F669
:1009B00083E0809306021092040257C0883809F43D
:1009C0007BC0803919F0803809F0B7CF80910402DC
:1009D000803208F071C0E091040281E08E0F8093B4
:1009E00004028091BB00F0E0EC51FE4F80833DC0DB
:1009F000803B39F0E0F4803A09F479C0883A09F094
:100A00009CCF84E0809306021092E3011092E201F1
:100A1000E0912E02F0912F0209958091E20181115F
:100A20000FC081E08093E2011092C20109C0803CB6
:100A300009F4A6CF883C09F4A3CF883B09F07DCF09
:100A4000E091E30181E08E0F8093E301F0E0EE534B
:100A5000FE4F80818093BB009091E3018091E20181
:100A600029C080912B028093BB0085EC8093BC0051
:100A700064CF90912A0280912902981758F5E0914D
:100A80002A0281E08E0F80932A02F0E0E75FFD4F9B
:100A90008081E9CFE0912A0281E08E0F80932A02C3
:100AA0008091BB00F0E0E75FFD4F808390912A02C8
:100AB000809129029817C8F285E8D8CFE0912A02E0
:100AC00081E08E0F80932A028091BB00F0E0E75F07
:100AD000FD4F80838091080281115CCF81E080937B
:100AE000070284EA8093BC001092060226CF85ECB0
:100AF0008093BC001092060280910402803230F490
:100B0000E0910402F0E0EC51FE4F1082609104028B
:100B100070E0E0912C02F0912D0284EE91E00995B5
:100B2000109204020ACF1092050234CFE8EAF2E0F4
:100B30001382128288EE93E0A0E0B0E08483958374
:100B4000A683B7832AE231E03183208325EC30E0AD
:100B50003587248724EC30E03787268720EC30E087
:100B6000318B208B21EC30E0338B228B22EC30E078
:100B7000358B248B26EC30E0378B268B118E128E32
:100B8000138E148EE5E4F3E013821282848395833E
:100B9000A683B7838CE391E0918380830895CF93FC
:100BA000DF93CDB7DEB7AC970FB6F894DEBF0FBEBC
:100BB000CDBF789484B5826084BD84B5816084BDE6
:100BC00085B5826085BD85B5816085BD80916E00EB
:100BD000816080936E00109281008091810082601C
:100BE0008093810080918100816080938100809159
:100BF00080008160809380008091B1008460809348
:100C0000B1008091B00081608093B00080917A0043
:100C1000846080937A0080917A00826080937A0069
:100C200080917A008E7F80937A0080917A0080682C
:100C300080937A001092C100E091B802F091B9025D
:100C400082E08083E091B402F091B5021082E091DD
:100C5000B602F091B70218E010831092C002E09142
:100C6000BC02F091BD0286E08083E091BA02F0916F
:100C7000BB02808180618083E091BA02F091BB0267
:100C8000808188608083E091BA02F091BB0280810C
:100C900080688083E091BA02F091BB0280818F7DF1
:100CA000808385E591E00E945803109233021092F0
:100CB000320210923102109230020E947F028EE3C3
:100CC00091E090932F0280932E028AE491E090931A
:100CD0002D0280932C021093BA0086E693E0909345
:100CE00035028093340280E2E6E0F1E0DE01119605
:100CF00001900D928A95E1F79E012F5F3F4F1901F8
:100D0000AE014F5D5F4F5AA349A386E392E098A7D7
:100D10008FA3A0EF8A2EAAEB9A2EA4E0AA2EB12CC4
:100D2000B0E24B2EBEE45B2E612C712CCC24CA9415
:100D3000DC2CEC2C1FE0F12E8EE190E00E94400BA9
:100D40008C01D1018D919D911D0121E030E0F801D0
:100D50003183208346E351E0578346838086918622
:100D6000A286B3864486558666867786843120F0CF
:100D70002FEF3FEF31832083E6EAF0E04491E2E990
:100D8000F0E02491222399F030E0220F331FF90183
:100D9000E859FF4FA591B491F901E458FF4F25910F
:100DA00034912FB7F8943C91432B4C932FBF992744
:100DB0009C0126563F4F3CA32BA3F9012491AC0183
:100DC0004A575F4F5EA34DA3FA0184918823C1F077
:100DD00090E0880F991FFC01E859FF4FA591B4914D
:100DE000FC01E458FF4F859194914FB7F8943C91E2
:100DF000209532233C93DC013C9123232C934FBF5D
:100E000060E08CE00E948C00E6EAF0E08491D8017A
:100E100058968C935897E2E9F0E08491E82FF0E03F
:100E2000EE0FFF1FEE58FF4F859194915A969C93B9
:100E30008E935997EBA1FCA184915B968C935B9761
:100E4000EDA1FEA18491E82FF0E0EE0FFF1FEE5818
:100E5000FF4F859194915D969C938E935C97F801DA
:100E6000C282D382E482F5820E943201D801509678
:100E70006D937D938D939C935397EFA1F8A5019368
:100E80001193F8A7EFA329A13AA12216330609F07E
:100E900053CF109298021092990283E791E00E943A
:100EA000580322242394312C44244A94542C642C37
:100EB0005FE0752E0E94FD0019821A820E943201A5
:100EC00060939B0270939C0280939D0290939E027C
:100ED00046E552E058A74FA386E392E09CA38BA37C
:100EE0005EA34DA3C12CD12C760196012770332728
:100EF00020939A02F60133E0F595E7953A95E1F7EC
:100F0000FAA7E9A78E2F8E5F482F50E05CA74BA76A
:100F1000FA01EA56FD4F808190E002C095958795D1
:100F20002A95E2F780FDBAC0ABA1BCA10D911C913E
:100F3000F801148A158A168A178A8081918197FD93
:100F400029C22EE1F894D8015996ED91FC915A9757
:100F5000928158968C9158978095892382835C96CC
:100F6000ED91FC915D9791815B968C915B9780955B
:100F7000892381835C96ED91FC915D9792815B96CC
:100F80008C915B978095892382835C96ED91FC918F
:100F90005D9781815B969C915B97892B81835C96A1
:100FA000ED91FC915D9792815B968C915B9780951A
:100FB0008923828380E190E00197F1F75C96ED91BF
:100FC000FC915D9791815B968C915B9780958923CD
:100FD00081835C96ED91FC915D9792815B968C91FB
:100FE0005B978095892382835996ED91FC915A975E
:100FF000828158969C91892B82837894F801848C05
:10100000958CB38C4085518562857385D4013C9164
:10101000F80184899589A689B7893B2169F48417E9
:101020009507A607B70740F40196A11DB11D848B53
:10103000958BA68BB78BEACF481759076A077B07B2
:1010400008F0CFC08EEF9FEFAFEFBFEFEDA1FEA195
:1010500080839183A283B3838E3FFFEF9F07AF0707
:10106000BF0709F09BC186E891E00E94E6024AE0D2
:10107000C701B6010E94F3028AE491E00E94E602F1
:10108000EBA5FCA5EA56FD4F80919A02910101C0A3
:10109000220F8A95EAF78081822B80835FEFC51A41
:1010A000D50AE50AF50A8DA19EA104969EA38DA3FB
:1010B000ABA1BCA11296BCA3ABA3B0E1CB16D104EB
:1010C000E104F10409F011CF8981809396028A81AD
:1010D000809397020E94320100919B0210919C0222
:1010E00020919D0230919E02601B710B820B930B2D
:1010F0004AE00E94F3028AE991E00E94E60210E0D1
:1011000000E0C8018770992780939A02F80193E064
:10111000F595E7959A95E1F7EE5FF0E0EA56FD4F19
:10112000910101C0220F8A95EAF78081822309F09C
:1011300048C1EFA1F8A5608171818281938197FFF9
:101140003CC10E9437038AE991E00E94E6020F5FEA
:101150001F4F2FA138A52C5F3F4F38A72FA3003179
:10116000110579F66091990270E090E080E042E02C
:101170000E94F30287E991E00E94E60260919802E2
:1011800070E090E080E042E00E94F30287E991E0A5
:101190000E94E6026091970270E090E080E042E0F9
:1011A0000E94F30287E991E00E94E60260919602B4
:1011B00070E090E080E042E00E94F3028BE991E071
:1011C0000E9458030E94FD0040E050E0452B09F4C6
:1011D00071CE0E94B501882309F46CCE0E940000F4
:1011E00069CEF894D8015C96ED91FC915D9782816F
:1011F0005B969C915B97892B82835C96ED91FC9129
:101200005D9781815B969C915B97892B81835C962E
:10121000ED91FC915D9782815B969C915B97892B08
:1012200082835C96ED91FC915D9791815B968C91A8
:101230005B978095892381835C96ED91FC915D9706
:1012400092815B968C915B978095892382835996D6
:10125000ED91FC915A97928158968C9180958923B3
:1012600082837894F801848C958C338D40855185E8
:1012700062857385D401BC90F80184899589A6891B
:10128000B789B32209F074C084179507A607B7077A
:1012900008F0D8CE215009F055CE0E943201D80175
:1012A00050968D909D90AD90BC9053976819790998
:1012B0008A099B091C968D909D90AD90BC901F97BC
:1012C00086169706A806B906B8F554968D909D9097
:1012D000AD90BC90579712966D917D918D919C9198
:1012E000159786169706A806B90609F44FC0861A00
:1012F000970AA80AB90A0E94450A2DEC3CEC4CEC6E
:101300005DE30E94AB0A0E940F0A072E000C880BB7
:10131000990B86169706A806B90670F4F801428262
:101320005382648275820E943201D80150966D9377
:101330007D938D939C935397F80184899589A68911
:10134000B789428153816481758184179507A60707
:10135000B70720F482839383A483B583F801428185
:10136000538164817581841B950BA60BB70B6ECEE0
:1013700084179507A607B70708F064CE0196A11D4C
:10138000B11D848B958BA68BB78B74CF812C912C40
:101390005401B1CF8FEF9FEFDC0158CE813D9740D4
:1013A000A105B1050CF47ACEE1E0F0E0EC0FFD1FF1
:1013B00049A55AA5E40FF51F67CE4AE00E94F30243
:1013C000C2CE6EE288EA92E00E94EB01BCCEA1E2BE
:1013D0001A2EAA1BBB1BFD010DC0AA1FBB1FEE1FAF
:1013E000FF1FA217B307E407F50720F0A21BB30BFA
:1013F000E40BF50B661F771F881F991F1A9469F776
:1014000060957095809590959B01AC01BD01CF01D1
:101410000895EE0FFF1F0590F491E02D09940E94AE
:10142000160A6894B1110C94A50A08950E948A0ABC
:1014300088F09F5798F0B92F9927B751B0F0E1F095
:10144000660F771F881F991F1AF0BA95C9F714C045
:10145000B13091F00E94A40AB1E008950C94A40A5E
:10146000672F782F8827B85F39F0B93FCCF386957E
:1014700077956795B395D9F73EF4909580957095DB
:1014800061957F4F8F4F9F4F0895E89409C097FB58
:101490003EF490958095709561957F4F8F4F9F4F4B
:1014A0009923A9F0F92F96E9BB279395F69587958F
:1014B00077956795B795F111F8CFFAF4BB0F11F452
:1014C00060FF1BC06F5F7F4F8F4F9F4F16C08823F9
:1014D00011F096E911C0772321F09EE8872F762F2F
:1014E00005C0662371F096E8862F70E060E02AF070
:1014F0009A95660F771F881FDAF7880F969587955C
:1015000097F9089557FD9058440F551F59F05F3FC4
:1015100071F04795880F97FB991F61F09F3F79F015
:1015200087950895121613061406551FF2CF469597
:10153000F1DF08C0161617061806991FF1CF869519
:101540007105610508940895E894BB2766277727FD
:10155000CB0197F908950E94BE0A0C942F0B0E94AC
:10156000210B38F00E94280B20F0952311F00C94E9
:10157000180B0C941E0B11240C94A50A0E94820ACD
:1015800070F3959FC1F3950F50E0551F629FF001D6
:10159000729FBB27F00DB11D639FAA27F00DB11DEF
:1015A000AA1F649F6627B00DA11D661F829F222778
:1015B000B00DA11D621F739FB00DA11D621F839FFF
:1015C000A00D611D221F749F3327A00D611D231FD5
:1015D000849F600D211D822F762F6A2F11249F5723
:1015E00050409AF0F1F088234AF0EE0FFF1FBB1F26
:1015F000661F771F881F91505040A9F79E3F5105E5
:1016000080F00C94180B0C94A50A5F3FE4F3983E0D
:10161000D4F3869577956795B795F795E7959F5F8E
:10162000C1F7FE2B880F911D9695879597F9089520
:1016300097F99F6780E870E060E008959FEF80EC85
:10164000089500240A941616170618060906089528
:1016500000240A9412161306140605060895092E8E
:101660000394000C11F4882352F0BB0F40F4BF2BFD
:1016700011F460FF04C06F5F7F4F8F4F9F4F08953D
:101680000F931F93CF93DF938230910510F482E084
:1016900090E0E0915303F091540330E020E0B0E09B
:1016A000A0E0309799F42115310509F44AC0281BB0
:1016B000390B24303105D8F58A819B81611571057C
:1016C00089F1FB0193838283FE0111C04081518126
:1016D0000281138148175907E0F04817590799F418
:1016E000109761F012960C93129713961C933296F2
:1016F000CF01DF91CF911F910F9108950093530374
:1017000010935403F4CF2115310551F042175307BC
:1017100038F0A901DB019A01BD01DF01F801C1CF59
:10172000EF01F9CF9093540380935303CDCFFE0183
:10173000E20FF31F8193919322503109398328835B
:10174000D7CF2091510330915203232B41F42091A4
:1017500002013091030130935203209351032091F1
:101760000001309101012115310541F42DB73EB73B
:101770004091040150910501241B350BE091510368
:10178000F0915203E217F307A0F42E1B3F0B28172A
:10179000390778F0AC014E5F5F4F2417350748F0EA
:1017A0004E0F5F1F509352034093510381939193C7
:1017B0009FCFF0E0E0E09CCFCF93DF930097E9F07C
:1017C000FC01329713821282A0915303B09154030B
:1017D000ED0130E020E01097A1F420813181820FEB
:1017E000931F20915103309152032817390709F0B4
:1017F00061C0F0935203E0935103DF91CF910895BC
:10180000EA01CE17DF07E8F54A815B819E014115A9
:101810005105B1F7E901FB83EA8349915991C40F5E
:10182000D51FEC17FD0761F4808191810296840F2A
:10183000951FE90199838883828193819B838A83A1
:10184000F0E0E0E012968D919C9113970097B9F526
:101850002D913C911197CD010296820F931F2091FB
:101860005103309152032817390739F6309751F553
:101870001092540310925303B0935203A093510358
:10188000BCCFD383C28340815181840F951FC81779
:10189000D90761F44E5F5F4F88819981480F591FC6
:1018A000518340838A819B819383828321153105F3
:1018B00009F0B0CFF0935403E09353039ECFFD01A2
:0E18C000DC01C0CF13821282D7CFF894FFCF85
:1018CE00000055038000020003000400050006001E
:1018DE000700080009000A000B000E000F001000A0
:1018EE0011001200130000000000EB014B01780103
:1018FE003802A90187019B0100000000D202C70235
:10190E00E3029D02C002AD029E020D0A00726570D6
:10191E006C696564002020486920626F79732061CC
:10192E006E64206769726C2C20626520686170702D
:10193E0079210053657475702069732066696E692C
:10194E00736865642E004368616E6E656C20476F28
:0C195E0074206572726F72202000090076
:00000001FF
