:100000000C9462000C948A000C948A000C948A0070
:100010000C948A000C948A000C948A000C948A0038
:100020000C948A000C948A000C948A000C948A0028
:100030000C948A000C948A000C948A000C948A0018
:100040000C942F030C948A000C949F030C94790356
:100050000C948A000C948A000C948A000C948A00F8
:100060000C94D1030C948A000000000024002700A7
:100070002A000000000023002600290000000000E4
:10008000250028002B0004040404040404040202D4
:100090000202020203030303030301020408102007
:1000A0004080010204081020010204081020000012
:1000B0000008000201000003040700000000000027
:1000C0000000F00411241FBECFEFD8E0DEBFCDBF8B
:1000D00011E0A0E0B1E0E0E0F7E102C005900D9290
:1000E000A03CB107D9F723E0A0ECB1E001C01D921C
:1000F000A635B207E1F710E0C2E6D0E004C02197D0
:10010000FE010E942209C136D107C9F70E942905C4
:100110000C947E0B0C94000090E0FC01E255FF4F24
:100120002491FC01E656FF4F3491FC01EA57FF4F42
:10013000E491EE23C9F0222339F0233001F1A8F431
:10014000213019F1223029F1F0E0EE0FFF1FE458C1
:10015000FF4FA591B4918FB7F894EC91611126C02F
:1001600030953E233C938FBF08952730A9F0283067
:10017000C9F0243049F7809180008F7D03C08091C1
:1001800080008F7780938000DFCF84B58F7784BD28
:10019000DBCF84B58F7DFBCF8091B0008F778093CC
:1001A000B000D2CF8091B0008F7DF9CF3E2BDACF57
:1001B0003FB7F8948091A5029091A602A091A70262
:1001C000B091A80226B5A89B05C02F3F19F0019653
:1001D000A11DB11D3FBFBA2FA92F982F8827BC01A1
:1001E000CD01620F711D811D911D43E0660F771FC8
:1001F000881F991F4A95D1F708952FB7F8946091F9
:10020000A1027091A2028091A3029091A4022FBF3B
:100210000895E0915802F0915902309729F0109218
:10022000550210925402099408950895AF92BF9216
:10023000CF92DF92EF92FF920F931F93CF93DF93B2
:100240006C017B018B01040F151FEB015E01AE18E1
:10025000BF08C017D10759F06991D601ED91FC9103
:100260000190F081E02DC6010995892B79F7C50130
:10027000DF91CF911F910F91FF90EF90DF90CF9082
:10028000BF90AF900895FC01538D448D252F30E031
:10029000842F90E0821B930B541710F0CF96089593
:1002A00001970895FC01918D828D981761F0A28DC0
:1002B000AE0FBF2FB11D5D968C91928D9F5F9F7386
:1002C000928F90E008958FEF9FEF0895FC01918D3C
:1002D000828D981731F0828DE80FF11D858D90E0A9
:1002E00008958FEF9FEF0895FC01918D228D892F46
:1002F00090E0805C9F4F821B91098F73992708952E
:1003000089EA92E00E94740121E0892B09F420E03F
:10031000822F089580E090E0892B29F00E948001CF
:1003200081110C9400000895FC01A48DA80FB92F31
:10033000B11DA35ABF4F2C91848D90E001968F730D
:100340009927848FA689B7892C93A089B1898C912C
:10035000837080648C93938D848D981306C002887B
:10036000F389E02D80818F7D80830895EF92FF9245
:100370000F931F93CF93DF93EC0181E0888F9B8DC8
:100380008C8D98131AC0E889F989808185FF15C082
:100390009FB7F894EE89FF896083E889F9898081A5
:1003A0008370806480839FBF81E090E0DF91CF9174
:1003B0001F910F91FF90EF900895F62E0B8D10E096
:1003C0000F5F1F4F0F731127E02E8C8D8E110CC005
:1003D0000FB607FCFACFE889F989808185FFF5CF50
:1003E000CE010E949401F1CFEB8DEC0FFD2FF11D9A
:1003F000E35AFF4FF0829FB7F8940B8FEA89FB898D
:1004000080818062CFCFCF93DF93EC01888D8823EA
:10041000B9F0AA89BB89E889F9898C9185FD03C067
:10042000808186FD0DC00FB607FCF7CF8C9185FF4C
:10043000F2CF808185FFEDCFCE010E949401E9CFFC
:10044000DF91CF91089520910602260F3327331FA5
:1004500021323105ECF420912A02FC0190E080E089
:10046000243069F082E00895A09106022191AC0148
:100470004A515E4FA40FB52FB11D2C9301968617DC
:1004800098F380910602680F6093060280E0089559
:1004900081E0089510922A0281E080932C0210924C
:1004A0002B0261E082E10E948C0061E083E10E9406
:1004B0008C00E9EBF0E080818E7F808380818D7FEE
:1004C000808380E28093B80085E48093BC00089527
:1004D0000895E091570280915602E81730F4F0E059
:1004E000E054FE4F808190E008958FEF9FEF0895D4
:1004F00090915702809156022FEF3FEF981748F4E2
:10050000E92FF0E0E054FE4F208130E09F5F9093B0
:100510005702C90108958091560290915702891B94
:10052000990B0895CF93DF93CB01EA01642F0E94CA
:100530002302CE01DF91CF910895CF93DF931F92D5
:10054000CDB7DEB7698361E0CE0101960E94230238
:1005500081E090E00F90DF91CF91089590E080E0EE
:100560000895FC0101900020E9F73197AF01481B85
:10057000590BBC0189EA92E00C941601CF93DF93EA
:100580000E94B102EC018AE491E00E94B1028C0F5A
:100590009D1FDF91CF9108954EE050E06AE572E033
:1005A00086E493E00E9492028DE491E00C94B10203
:1005B000CF93DF9385ED8093BC008091E201909111
:1005C000E301A091E401B091E5010796A11DB11DE1
:1005D00023E0B695A795979587952A95D1F7209111
:1005E000BC0024FD03C010922A0236C04091E201F3
:1005F0005091E3016091E4017091E501452B462B98
:10060000472B69F30097A105B10541F02AE12A952E
:10061000F1F700C00197A109B109E1CF8091E10193
:1006200091E09093E0018823B9F0C091B800D09197
:10063000BA008091BC008A7B8093BC0060E082E1BC
:100640000E948C0060E083E10E948C000E944A02BC
:10065000D093BA00C093B800DF91CF9108951F9254
:100660000F920FB60F9211242F933F938F939F9366
:10067000AF93BF938091A1029091A202A091A30297
:10068000B091A4023091A00226E0230F2D3758F537
:100690000296A11DB11D2093A0028093A102909308
:1006A000A202A093A302B093A4028091A50290910C
:1006B000A602A091A702B091A8020196A11DB11DAA
:1006C0008093A5029093A602A093A702B093A802DC
:1006D000BF91AF919F918F913F912F910F900FBE3E
:1006E0000F901F90189529E8230F0396A11DB11DA7
:1006F000D2CF1F920F920FB60F9211242F933F93D8
:100700004F935F936F937F938F939F93AF93BF9319
:10071000EF93FF9389EA92E00E949401FF91EF9199
:10072000BF91AF919F918F917F916F915F914F9109
:100730003F912F910F900FBE0F901F9018951F9211
:100740000F920FB60F9211242F938F939F93EF93D5
:10075000FF93E091B902F091BA028081E091BF026B
:10076000F091C00282FD1BC090818091C2028F5F18
:100770008F732091C302821741F0E091C202F0E032
:10078000E755FD4F958F8093C202FF91EF919F91A6
:100790008F912F910F900FBE0F901F901895808111
:1007A000F4CF1F920F920FB60F9211242F933F9305
:1007B0004F935F936F937F938F939F93AF93BF9369
:1007C000EF93FF938091B900887F803609F44AC087
:1007D000F0F5883209F4A7C018F5803109F49BC000
:1007E000B8F4882309F4F9C0883009F494C0FF9163
:1007F000EF91BF91AF919F918F917F916F915F9199
:100800004F913F912F910F900FBE0F901F90189511
:10081000883109F488C0803251F78093290214C0CE
:10082000803409F49DC040F48033B9F38833F9F67D
:100830008093290285ECB0C0803509F485C08835E5
:1008400009F496C0883499F60E94D802D0CF88392E
:1008500009F48CC038F5883729F050F4883611F047
:10086000803729F683E080932A021092280257C02D
:10087000883809F47BC0803919F0803809F0B7CF87
:1008800080912802803208F071C0E091280281E056
:100890008E0F809328028091BB00F0E0E85FFD4F4F
:1008A00080833DC0803B39F0E0F4803A09F479C0A0
:1008B000883A09F09CCF84E080932A0210920702C4
:1008C00010920602E0915202F09153020995809134
:1008D000060281110FC081E0809306021092E601AA
:1008E00009C0803C09F4A6CF883C09F4A3CF883B1B
:1008F00009F07DCFE091070281E08E0F809307021F
:10090000F0E0EA51FE4F80818093BB009091070296
:100910008091060229C080914F028093BB0085EC34
:100920008093BC0064CF90914E0280914D02981745
:1009300058F5E0914E0281E08E0F80934E02F0E078
:10094000E35DFD4F8081E9CFE0914E0281E08E0FA3
:1009500080934E028091BB00F0E0E35DFD4F808309
:1009600090914E0280914D029817C8F285E8D8CF39
:10097000E0914E0281E08E0F80934E028091BB0089
:10098000F0E0E35DFD4F808380912C0281115CCF0C
:1009900081E080932B0284EA8093BC0010922A02AB
:1009A00026CF85EC8093BC0010922A028091280209
:1009B000803230F4E0912802F0E0E85FFD4F1082D1
:1009C0006091280270E0E0915002F091510288E0BD
:1009D00092E00995109228020ACF1092290234CF92
:1009E000E9EAF2E01382128288EE93E0A0E0B0E040
:1009F00084839583A683B7832AE231E03183208301
:100A000025EC30E03587248724EC30E037872687D3
:100A100020EC30E0318B208B21EC30E0338B228BCB
:100A200022EC30E0358B248B26EC30E0378B268BA4
:100A3000118E128E138E148EE6E4F3E0138212826E
:100A400084839583A683B7838CE391E0918380832D
:100A50000895CF93DF93CDB7DEB7A3970FB6F89481
:100A6000DEBF0FBECDBF789484B5826084BD84B5EF
:100A7000816084BD85B5826085BD85B5816085BD99
:100A800080916E00816080936E0010928100809151
:100A900081008260809381008091810081608093D9
:100AA0008100809180008160809380008091B100FE
:100AB00084608093B1008091B00081608093B00029
:100AC00080917A00846080937A0080917A008260BD
:100AD00080937A0080917A008E7F80937A00809153
:100AE0007A00806880937A001092C100E091B90288
:100AF000F091BA0282E08083E091B502F091B602F3
:100B00001082E091B702F091B80288E080831092E1
:100B1000C102E091BD02F091BE0286E08083E091C7
:100B2000BB02F091BC02808180618083E091BB02B6
:100B3000F091BC02808188608083E091BB02F091DB
:100B4000BC02808180688083E091BB02F091BC028E
:100B500080818F7D808385E591E00E94BE021092A6
:100B600057021092560210925502109254020E949F
:100B70004A0289E091E0909353028093520285E10A
:100B800091E0909351028093500284E18093BA00E7
:100B90008CEC92E0909359028093580280E2E6E058
:100BA000F1E0DE01119601900D928A95E1F79E0128
:100BB0002F5F3F4F49011E013DE1230E311C78E6B6
:100BC000C72E72E0D72EE0E24E2EEEE45E2E612CB0
:100BD000712CD4010D911D914D018EE190E00E9488
:100BE000590A7C0121E030E0FC013183208346E397
:100BF00051E05783468380EF9AEBA4E0B0E0808712
:100C00009187A287B387D701448655866686778603
:100C1000043120F0EFEFFFEFED93FC93E6EAF0E014
:100C20002491E2E9F0E08491882399F090E0880F24
:100C3000991FFC01E859FF4FA591B491FC01E458BC
:100C4000FF4F859194918FB7F8949C91292B2C9309
:100C50008FBF1127980126563F4F5901F901249162
:100C60000A571F4FF80184918823C1F090E0880F44
:100C7000991FFC01E859FF4FA591B491FC01E4587C
:100C8000FF4F859194914FB7F8943C912095322372
:100C90003C93DC013C9123232C934FBF60E08CE01C
:100CA0000E948C00E6EAF0E08491D70158968C937C
:100CB0005897E2E9F0E08491E82FF0E0EE0FFF1F93
:100CC000EE58FF4F859194915A969C938E93599725
:100CD000F501A4905B96AC925B97F8010491E02F2C
:100CE000F0E0EE0FFF1FEE58FF4F859194915D9657
:100CF0009C938E935C972FEF3FEF4FEF5FE0129640
:100D00002D933D934D935C9315970E94FD00F70141
:100D1000608B718B828B938BD6011296FC92EE9234
:100D2000119713961C9213971C92B4E0CB0ED11C12
:100D30002814390409F04DCF83E791E00E94BE02E8
:100D400020E1222E312CEAE5F2E0FBA3EAA398E6AB
:100D5000E92E92E0F92EDD24D394D7018C918111F4
:100D6000D3C00E94FD004B015C01F701018112819B
:100D7000D80154961D921D921D921C9257978D91E9
:100D80009C9197FDFDC12EE1F894D8015996ED9103
:100D9000FC915A97928158968C9158978095892307
:100DA00082835C96ED91FC915D9791815B968C912D
:100DB0005B978095892381835C96ED91FC915D978B
:100DC00092815B968C915B978095892382835C9658
:100DD000ED91FC915D9781815B969C915B97892B4E
:100DE00081835C96ED91FC915D9792815B968C91ED
:100DF0005B97809589238283C1010197F1F75C9607
:100E0000ED91FC915D9791815B968C915B978095BC
:100E1000892381835C96ED91FC915D9792815B962D
:100E20008C915B978095892382835996ED91FC91F3
:100E30005A97828158969C91892B82837894F801E5
:100E4000648C758CC38C4085518562857385D30114
:100E50003C91F80184899589A689B7893C2169F478
:100E600084179507A607B70740F40196A11DB11D89
:100E7000848B958BA68BB78BEACF481759076A07E7
:100E80007B0708F083C086E891E00E94BE02D7018C
:100E9000DC920E94FD009B01AC01281939094A0926
:100EA0005B0949015A0180EA91E00E94B102B7FE54
:100EB00070C16DE289EA92E00E94B60122273327D1
:100EC000A901281939094A095B0919A28E010F5D88
:100ED0001F4FCA01B9012AE030E040E050E00E9413
:100EE000E108605DD8016E938D0121153105410542
:100EF000510579F70115110519F0C8010E94B102D9
:100F00008AE491E00E94B102D70113968C91EAA184
:100F1000FBA18193FBA3EAA30E94D8002B013C0113
:100F200084E6882E912CA12CB12C0E94D800641943
:100F3000750986099709683E734081059105A8F3F4
:100F4000F1E08F1A9108A108B10828EE420E23E0C3
:100F5000521E611C711C81149104A104B10429F773
:100F600044E0E40EF11C50EAE51652E0F50609F003
:100F7000F4CE80E090E0892B09F4E5CE0E94800158
:100F8000882309F4E0CE0E940000DDCEF894D80159
:100F90005C96ED91FC915D9782815B969C915B974D
:100FA000892B82835C96ED91FC915D9781815B96A4
:100FB0009C915B97892B81835C96ED91FC915D9769
:100FC00082815B969C915B97892B82835C96ED91E5
:100FD000FC915D9791815B968C915B9780958923BD
:100FE00081835C96ED91FC915D9792815B968C91EB
:100FF0005B978095892382835996ED91FC915A974E
:10100000928158968C918095892382837894F801F7
:10101000648C758C338D4085518562857385D301D1
:10102000CC90F80184899589A689B789C32209F0F3
:1010300095C084179507A607B70708F024CF21505D
:1010400009F0A2CE0E94FD00D80150964D905D900F
:101050006D907C90539764197509860997091C96C1
:101060004D905D906D907C901F97461657066806D0
:101070007906D8F554964D905D906D907C90579779
:1010800012966D917D918D919C91159746165706FC
:101090006806790609F470C0461A570A680A790A80
:1010A0000E945E092DEC3CEC4CEC5DE30E94C4090F
:1010B0000E942809072E000C880B990B461657062C
:1010C0006806790690F42FEF3FEF4FEF5FE0D8010D
:1010D00012962D933D934D935C9315970E94FD00BE
:1010E000F801608B718B828B938BF80184899589D1
:1010F000A689B789428053806480758084159505E0
:10110000A605B70520F482839383A483B583F801F1
:101110000281138124813581BC01CD01601B710BDB
:10112000820B930B6E3FFFEF7F078F079F0709F43A
:10113000AACED7011C922CE030E040E050E00E94A3
:1011400003092B3F08F5F7012383D70113968C91F0
:10115000139781119ECE1396DC929BCE8417950730
:10116000A607B70708F08FCE0196A11DB11D848B8D
:10117000958BA68BB78B53CF412C512C320190CF3E
:101180006FEF7FEFCB01D5CFEAEFD7011396EC934A
:10119000DCCF19A28E010F5D1F4FC501B4012AE0FB
:1011A00030E040E050E00E94E10849015A01605DF2
:1011B000F80162938F0181149104A104B10469F7CD
:1011C00099CEA1E21A2EAA1BBB1BFD010DC0AA1FBE
:1011D000BB1FEE1FFF1FA217B307E407F50720F0A0
:1011E000A21BB30BE40BF50B661F771F881F991F1B
:1011F0001A9469F760957095809590959B01AC0164
:10120000BD01CF010895052E97FB1EF400940E94A6
:101210001A0957FD07D00E94E10807FC03D04EF4DD
:101220000C941A0950954095309521953F4F4F4F9A
:101230005F4F089590958095709561957F4F8F4F82
:101240009F4F0895EE0FFF1F0590F491E02D099434
:101250000E942F096894B1110C94BE0908950E9450
:10126000A30988F09F5798F0B92F9927B751B0F08C
:10127000E1F0660F771F881F991F1AF0BA95C9F71A
:1012800014C0B13091F00E94BD09B1E008950C94F2
:10129000BD09672F782F8827B85F39F0B93FCCF3A5
:1012A000869577956795B395D9F73EF49095809597
:1012B000709561957F4F8F4F9F4F0895E89409C0B7
:1012C00097FB3EF490958095709561957F4F8F4F79
:1012D0009F4F9923A9F0F92F96E9BB279395F6958F
:1012E000879577956795B795F111F8CFFAF4BB0F0D
:1012F00011F460FF1BC06F5F7F4F8F4F9F4F16C071
:10130000882311F096E911C0772321F09EE8872FFA
:10131000762F05C0662371F096E8862F70E060E0B6
:101320002AF09A95660F771F881FDAF7880F96952F
:10133000879597F9089557FD9058440F551F59F018
:101340005F3F71F04795880F97FB991F61F09F3FB2
:1013500079F087950895121613061406551FF2CFDB
:101360004695F1DF08C0161617061806991FF1CF2B
:1013700086957105610508940895E894BB27662752
:101380007727CB0197F908950E94D7090C94480A52
:101390000E943A0A38F00E94410A20F0952311F089
:1013A0000C94310A0C94370A11240C94BE090E9443
:1013B0009B0970F3959FC1F3950F50E0551F629FF5
:1013C000F001729FBB27F00DB11D639FAA27F00D9E
:1013D000B11DAA1F649F6627B00DA11D661F829FC5
:1013E0002227B00DA11D621F739FB00DA11D621FAA
:1013F000839FA00D611D221F749F3327A00D611DC7
:10140000231F849F600D211D822F762F6A2F1124A8
:101410009F5750409AF0F1F088234AF0EE0FFF1FDB
:10142000BB1F661F771F881F91505040A9F79E3F32
:10143000510580F00C94310A0C94BE095F3FE4F32F
:10144000983ED4F3869577956795B795F795E79588
:101450009F5FC1F7FE2B880F911D9695879597F991
:10146000089597F99F6780E870E060E008959FEF26
:1014700080EC089500240A9416161706180609062B
:10148000089500240A9412161306140605060895FA
:10149000092E0394000C11F4882352F0BB0F40F482
:1014A000BF2B11F460FF04C06F5F7F4F8F4F9F4FC2
:1014B00008950F931F93CF93DF938230910510F41B
:1014C00082E090E0E0915403F091550330E020E099
:1014D000B0E0A0E0309799F42115310509F44AC035
:1014E000281B390B24303105D8F58A819B81611581
:1014F000710589F1FB0193838283FE0111C0408154
:1015000051810281138148175907E0F048175907A4
:1015100099F4109761F012960C93129713961C93FE
:101520003296CF01DF91CF911F910F9108950093D3
:10153000540310935503F4CF2115310551F0421790
:10154000530738F0A901DB019A01BD01DF01F80161
:10155000C1CFEF01F9CF9093550380935403CDCFC2
:10156000FE01E20FF31F81939193225031093983D9
:101570002883D7CF2091520330915303232B41F47A
:1015800020910201309103013093530320935203C1
:1015900020910001309101012115310541F42DB751
:1015A0003EB74091040150910501241B350BE09199
:1015B0005203F0915303E217F307A0F42E1B3F0BE5
:1015C0002817390778F0AC014E5F5F4F24173507B5
:1015D00048F04E0F5F1F5093530340935203819383
:1015E00091939FCFF0E0E0E09CCFCF93DF93009703
:1015F000E9F0FC01329713821282A0915403B0915A
:101600005503ED0130E020E01097A1F420813181F5
:10161000820F931F209152033091530328173907EB
:1016200009F061C0F0935303E0935203DF91CF912F
:101630000895EA01CE17DF07E8F54A815B819E0134
:1016400041155105B1F7E901FB83EA8349915991AD
:10165000C40FD51FEC17FD0761F4808191810296BC
:10166000840F951FE90199838883828193819B83ED
:101670008A83F0E0E0E012968D919C911397009799
:10168000B9F52D913C911197CD010296820F931FD0
:1016900020915203309153032817390739F63097B8
:1016A00051F51092550310925403B0935303A09335
:1016B0005203BCCFD383C28340815181840F951FD5
:1016C000C817D90761F44E5F5F4F88819981480F31
:1016D000591F518340838A819B8193838283211583
:1016E000310509F0B0CFF0935503E09354039ECF3A
:1016F000FD01DC01C0CF13821282D7CFF894FFCF57
:1017000000005603800002000300040005000600EC
:101710000700080009000A000B000E000F0010006F
:1017200011001200130000000000B6011601430171
:101730000302740152016601000000009D02920242
:10174000AE0268028B02780269020D0A00726570AF
:101750006C696564002020486920626F797320619C
:101760006E64206769726C2C2062652068617070FD
:1017700079210053657475702069732066696E69FC
:10178000736865642E0054686973206368616E6EC7
:10179000656C206265636F6D6573206469656400C4
:1017A00074696D6520636F7374206F662074686957
:1017B00073206D656173737572656D656E7420005D
:00000001FF
